:100000000C9434000C9446000C9446000C9446006A
:100010000C9446000C9446000C9446000C94460048
:100020000C9446000C9446000C9446000C94460038
:100030000C9446000C9446000C9446000C94460028
:100040000C9446000C9446000C9446000C94460018
:100050000C9446000C9446000C9446000C94460008
:100060000C9487000C94460011241FBECFEFD8E0FB
:10007000DEBFCDBF21E0A0E0B1E001C01D92A830FD
:10008000B207E1F70E94C9000C94F6000C9400003E
:100090009091020121E0290F2093020190FD03C0FD
:1000A00080930101089580930001089580910101DA
:1000B0008093BB0008952FB7F89490910301892392
:1000C000909103019827909303012FBF089587B162
:1000D000807E87B988B18F6188B9089590930701B0
:1000E0008093060170930501609304010895F894CC
:1000F000880F8093BA0085EC8093BC0078940895B3
:10010000F8941092BC001092BA00789408951F924F
:100110000F920FB60F9211242F933F934F935F933B
:100120006F937F938F939F93AF93BF93EF93FF93BF
:100130008091B900887F883AD9F0C0F4882331F1E2
:100140008038E1F085EC8093BC00FF91EF91BF9186
:10015000AF919F918F917F916F915F914F913F915F
:100160002F910F900FBE0F901F901895883B51F75D
:10017000E0910401F09105010995E4CF8091BB0065
:10018000E0910601F09107010995DCCF1092BC00C7
:10019000D9CF8FEF84B98AB915B81BB888E490E03D
:1001A000909307018093060186E590E09093050106
:1001B0008093040180E10E947700109201018FEF8B
:1001C000909101019817E1F39091010188E090FD71
:1001D0000BC02A982C9A2C9896958150C1F72B9A8F
:1001E0002B9880910101ECCF2A9AF4CFF894FFCF9D
:00000001FF
