:100000000C9434000C9451000C9451000C94510049
:100010000C9451000C9451000C9451000C9451001C
:100020000C9451000C9451000C9451000C9451000C
:100030000C9451000C9451000C9451000C945100FC
:100040000C9451000C9451000C9451000C945100EC
:100050000C9451000C9451000C9451000C945100DC
:100060000C947E000C94510011241FBECFEFD8E0F9
:10007000DEBFCDBF11E0A0E0B1E0E0E2F3E002C0FE
:1000800005900D92A430B107D9F721E0A4E0B1E0CA
:1000900001C01D92A930B207E1F70E9431010C9412
:1000A0008E010C940000E091040191E09E0F90936A
:1000B0000401F0E0E050FF4F808380910401833021
:1000C00011F410920401089508959093080180930B
:1000D000070170930601609305010895F894880F55
:1000E0008093BA0085EC8093BC0078940895F894CE
:1000F0001092BC001092BA00789408951F920F924B
:100100000FB60F9211242F933F934F935F936F93EA
:100110007F938F939F93AF93BF93EF93FF938091C0
:10012000B900887F883AD9F0C0F4882331F180384B
:10013000E1F085EC8093BC00FF91EF91BF91AF910E
:100140009F918F917F916F915F914F913F912F91EF
:100150000F900FBE0F901F901895883B51F7E091BC
:100160000501F09106010995E4CF8091BB00E09173
:100170000701F09108010995DCCF1092BC00D9CF9E
:1001800088B1806388B9249A239A229A219A209A66
:10019000579A569A559A549A539A529A259808956E
:1001A00083E590E0909308018093070184E690E056
:1001B000909306018093050180E10E946E000E94E9
:1001C000C0001092C1000895FC01A081B181268178
:1001D00081E090E001C0880F2A95EAF79C916111B7
:1001E00024C0809589238C93A481B5812C9130857E
:1001F00081E090E0AC0101C0440F3A95EAF7242B6E
:100200002C932AE12A95F1F700C0A481B5812C91A5
:10021000308501C0880F3A95EAF7809582238C9348
:100220008AE18A95F1F700C00895892BDCCFFC01A3
:10023000A281B3812C91378181E090E0AC0101C0B3
:10024000440F3A95EAF7242B2C93A281B3812C9189
:10025000378101C0880F3A95EAF7809582238C9305
:100260000895CDB7DEB762970FB6F894DEBF0FBE24
:10027000CDBF0E94D0008BE290E09B878A8722E06E
:10028000288B23E0298B9D878C8725E02A8B9F87ED
:100290008E879A83898326E02F839C838B8387E0D4
:1002A000888785E290E09E838D831986F12CCC248B
:1002B000CA94D12C3FE7B32E809100018F1591F0A5
:1002C000F09000010B2D0F1918E0602F6170CE0126
:1002D00001960E94E40006951150B9F7CE010196EF
:1002E0000E9417018091010100910201182FC01690
:1002F000D10691F0680190E1E92E6C2D6170CE017C
:100300000A960E94E400D694C794EA94E110F5CFCF
:10031000CE010A960E9417016801CECFF894FFCF54
:040320007F6060009A
:00000001FF
