:100000000C9434000C9451000C9451000C94510049
:100010000C9451000C9451000C9451000C9451001C
:100020000C9451000C9451000C9451000C9451000C
:100030000C9451000C9451000C9451000C945100FC
:100040000C9451000C9451000C9451000C945100EC
:100050000C9451000C9451000C9451000C945100DC
:100060000C9491000C94510011241FBECFEFD8E0E6
:10007000DEBFCDBF11E0A0E0B1E0E2EFF2E002C0F0
:1000800005900D92A430B107D9F721E0A4E0B1E0CA
:1000900001C01D92AA30B207E1F70E94EF000C9454
:1000A00077010C940000E091040191E09E0F909381
:1000B0000401F0E0E050FF4F808380910401833021
:1000C00011F410920401089508952FB7F8949091B7
:1000D00005018923909105019827909305012FBF71
:1000E000089587B1807E87B988B18F6188B90895F6
:1000F00090930901809308017093070160930601B2
:100100000895F894880F8093BA0085EC8093BC0022
:1001100078940895F8941092BC001092BA007894E4
:1001200008951F920F920FB60F9211242F933F93B1
:100130004F935F936F937F938F939F93AF93BF93EF
:10014000EF93FF938091B900887F883AD9F0C0F48B
:10015000882331F18038E1F085EC8093BC00FF9179
:10016000EF91BF91AF919F918F917F916F915F912F
:100170004F913F912F910F900FBE0F901F901895A8
:10018000883B51F7E0910601F09107010995E4CF12
:100190008091BB00E0910801F09109010995DCCF45
:1001A0001092BC00D9CF249A239A229A219A209A9D
:1001B000579A569A559A539A529A089583E590E021
:1001C000909309018093080184E690E090930701E1
:1001D0008093060180E10E9481000C94D300CDB78A
:1001E000DEB7A3970FB6F894DEBF0FBECDBF0E9457
:1001F000DE0080E090E89A8389838BE290E09C8324
:100200008B8322E02D8320E030E43F832E83998787
:10021000888723E02A8720E030E23C872B879E876F
:100220008D8725E02F8720E430E0398B288B9B8B4E
:100230008A8B26E02C8B20E230E03E8B2D8B988F32
:100240008F8B87E0898F80E190E09B8F8A8F85E29A
:1002500090E09D8F8C8F1E8E24E030E038A32F8F8E
:100260009AA389A381E08BA3EFEFF0E020E0BE0129
:100270006C5D7F4F01E010E080910001821779F002
:10028000209100012095922F88E090FD2BC02A98A4
:100290002C9A2C9896958150C1F72B9A2B98809187
:1002A000010140910201582FE417F507C9F0FE0142
:1002B0003196A281B3818481780102C0EE0CFF1CCB
:1002C0008A95E2F7C701E080F180E422F5229C9153
:1002D000EF2851F0892B8C9335966E177F0749F7DD
:1002E000FA01CACF2A9AD4CF80958923F4CFF89403
:0202F000FFCF3E
:0402F2007F804000C9
:00000001FF
