:100000000C9434000C9451000C9451000C94510049
:100010000C9451000C9451000C9451000C9451001C
:100020000C9451000C9451000C9451000C9451000C
:100030000C9451000C9451000C9451000C945100FC
:100040000C9451000C9451000C9451000C945100EC
:100050000C9451000C9451000C9451000C945100DC
:100060000C947E000C94510011241FBECFEFD8E0F9
:10007000DEBFCDBF11E0A0E0B1E0EEECF2E002C0E7
:1000800005900D92A430B107D9F721E0A4E0B1E0CA
:1000900001C01D92A930B207E1F70E94DC000C9468
:1000A00065010C940000E091040191E09E0F909393
:1000B0000401F0E0E050FF4F808380910401833021
:1000C00011F410920401089508959093080180930B
:1000D000070170930601609305010895F894880F55
:1000E0008093BA0085EC8093BC0078940895F894CE
:1000F0001092BC001092BA00789408951F920F924B
:100100000FB60F9211242F933F934F935F936F93EA
:100110007F938F939F93AF93BF93EF93FF938091C0
:10012000B900887F883AD9F0C0F4882331F180384B
:10013000E1F085EC8093BC00FF91EF91BF91AF910E
:100140009F918F917F916F915F914F913F912F91EF
:100150000F900FBE0F901F901895883B51F7E091BC
:100160000501F09106010995E4CF8091BB00E09173
:100170000701F09108010995DCCF1092BC00D9CF9E
:10018000249A239A229A219A209A579A569A559AF3
:10019000539A529A089583E590E0909308018093D2
:1001A000070184E690E0909306018093050180E1C9
:1001B0000E946E000C94C000CDB7DEB7A3970FB6B7
:1001C000F894DEBF0FBECDBF0E94CB0080E090E868
:1001D0009A8389838BE290E09C838B8322E02D833A
:1001E00020E030E43F832E839987888723E02A87A5
:1001F00020E030E23C872B879E878D8725E02F8784
:1002000020E430E0398B288B9B8B8A8B26E02C8B6B
:1002100020E230E03E8B2D8B988F8F8B87E0898F8B
:1002200080E190E09B8F8A8F85E290E09D8F8C8F9C
:100230001E8E24E030E038A32F8F9AA389A381E09B
:100240008BA3EFEFF0E040E05FE7BE016C5D7F4F16
:1002500001E010E080910001841779F040910001E5
:10026000952F941B88E090FD2BC02A982C9A2C98EF
:1002700096958150C1F72B9A2B988091010120917E
:100280000201382FE217F307C9F0FE013196A2816F
:10029000B3818481780102C0EE0CFF1C8A95E2F7DD
:1002A000C701E080F180E222F3229C91EF2851F017
:1002B000892B8C9335966E177F0749F7F901CACFC2
:0E02C0002A9AD4CF80958923F4CFF894FFCFEB
:0402CE007F804000ED
:00000001FF
