:100000000C9434000C9451000C9451000C94510049
:100010000C9451000C9451000C9451000C9451001C
:100020000C9451000C9451000C9451000C9451000C
:100030000C9451000C9451000C9451000C945100FC
:100040000C9451000C9451000C9451000C945100EC
:100050000C9451000C9451000C9451000C945100DC
:100060000C9451000C94510011241FBECFEFD8E026
:10007000DEBFCDBF11E0A0E0B1E0ECE2F2E002C0F3
:1000800005900D92A430B107D9F721E0A4E0B1E0CA
:1000900001C01D92A530B207E1F70E9484000C94C4
:1000A00014010C940000E091040191E09E0F9093E4
:1000B0000401F0E0E050FF4F808380910401833021
:1000C00011F41092040108950895249A239A229A13
:1000D000219A209A579A569A559A549A539A529A14
:1000E00008950E9465001092C1008CED9FEF9093DF
:1000F0008500809384001092800085E080938100C9
:1001000081E080936F000895CDB7DEB7A8970FB652
:10011000F894DEBF0FBECDBF0E94710080E090E476
:100120009A8389838BE290E09C838B8322E02D83EA
:1001300020E030E23F832E839987888723E02A8757
:1001400020E030E13C872B879E878D8724E02F8736
:1001500020E430E0398B288B9B8B8A8B26E02C8B1C
:1001600020E230E03E8B2D8B988F8F8B87E0898F3C
:1001700080E190E09B8F8A8F85E290E09D8F8C8F4D
:100180001E8E28E030E038A32F8F9AA389A321E0A8
:100190002BA340E054E05DA34CA39FA38EA328A70C
:1001A000EFEFF0E040E05FE7BE01675D7F4F01E009
:1001B00010E080910001841779F040910001952FA3
:1001C000941B88E090FD2BC02A982C9A2C98969529
:1001D0008150C1F72B9A2B98809101012091020147
:1001E000382FE217F307C9F0FE013196A281B381DF
:1001F0008481780102C0EE0CFF1C8A95E2F7C701EA
:10020000E080F180E222F3229C91EF2851F0892BCB
:100210008C9335966E177F0749F7F901CACF2A9A52
:0C022000D4CF80958923F4CFF894FFCF51
:04022C007F78700067
:00000001FF
